{
  "_format": "hh3-artifact-1",
  "contractName": "RoleRequestManager",
  "sourceName": "contracts/RoleRequestManager.sol",
  "abi": [
    {
      "inputs": [
        {
          "internalType": "address",
          "name": "registryAddress",
          "type": "address"
        }
      ],
      "stateMutability": "nonpayable",
      "type": "constructor"
    },
    {
      "inputs": [],
      "name": "AccessControlBadConfirmation",
      "type": "error"
    },
    {
      "inputs": [
        {
          "internalType": "address",
          "name": "account",
          "type": "address"
        },
        {
          "internalType": "bytes32",
          "name": "neededRole",
          "type": "bytes32"
        }
      ],
      "name": "AccessControlUnauthorizedAccount",
      "type": "error"
    },
    {
      "anonymous": false,
      "inputs": [
        {
          "indexed": true,
          "internalType": "bytes32",
          "name": "role",
          "type": "bytes32"
        },
        {
          "indexed": true,
          "internalType": "bytes32",
          "name": "previousAdminRole",
          "type": "bytes32"
        },
        {
          "indexed": true,
          "internalType": "bytes32",
          "name": "newAdminRole",
          "type": "bytes32"
        }
      ],
      "name": "RoleAdminChanged",
      "type": "event"
    },
    {
      "anonymous": false,
      "inputs": [
        {
          "indexed": true,
          "internalType": "uint256",
          "name": "requestId",
          "type": "uint256"
        },
        {
          "indexed": true,
          "internalType": "address",
          "name": "requester",
          "type": "address"
        },
        {
          "indexed": false,
          "internalType": "bytes32",
          "name": "role",
          "type": "bytes32"
        }
      ],
      "name": "RoleApproved",
      "type": "event"
    },
    {
      "anonymous": false,
      "inputs": [
        {
          "indexed": true,
          "internalType": "uint256",
          "name": "requestId",
          "type": "uint256"
        },
        {
          "indexed": true,
          "internalType": "address",
          "name": "requester",
          "type": "address"
        },
        {
          "indexed": false,
          "internalType": "bytes32",
          "name": "role",
          "type": "bytes32"
        }
      ],
      "name": "RoleDenied",
      "type": "event"
    },
    {
      "anonymous": false,
      "inputs": [
        {
          "indexed": true,
          "internalType": "bytes32",
          "name": "role",
          "type": "bytes32"
        },
        {
          "indexed": true,
          "internalType": "address",
          "name": "account",
          "type": "address"
        },
        {
          "indexed": true,
          "internalType": "address",
          "name": "sender",
          "type": "address"
        }
      ],
      "name": "RoleGranted",
      "type": "event"
    },
    {
      "anonymous": false,
      "inputs": [
        {
          "indexed": true,
          "internalType": "uint256",
          "name": "requestId",
          "type": "uint256"
        },
        {
          "indexed": true,
          "internalType": "address",
          "name": "requester",
          "type": "address"
        },
        {
          "indexed": false,
          "internalType": "bytes32",
          "name": "role",
          "type": "bytes32"
        }
      ],
      "name": "RoleRequested",
      "type": "event"
    },
    {
      "anonymous": false,
      "inputs": [
        {
          "indexed": true,
          "internalType": "bytes32",
          "name": "role",
          "type": "bytes32"
        },
        {
          "indexed": true,
          "internalType": "address",
          "name": "account",
          "type": "address"
        },
        {
          "indexed": true,
          "internalType": "address",
          "name": "sender",
          "type": "address"
        }
      ],
      "name": "RoleRevoked",
      "type": "event"
    },
    {
      "inputs": [],
      "name": "AUDITOR_ROLE",
      "outputs": [
        {
          "internalType": "bytes32",
          "name": "",
          "type": "bytes32"
        }
      ],
      "stateMutability": "view",
      "type": "function"
    },
    {
      "inputs": [],
      "name": "DEALER_ROLE",
      "outputs": [
        {
          "internalType": "bytes32",
          "name": "",
          "type": "bytes32"
        }
      ],
      "stateMutability": "view",
      "type": "function"
    },
    {
      "inputs": [],
      "name": "DEFAULT_ADMIN_ROLE",
      "outputs": [
        {
          "internalType": "bytes32",
          "name": "",
          "type": "bytes32"
        }
      ],
      "stateMutability": "view",
      "type": "function"
    },
    {
      "inputs": [],
      "name": "OWNER_ROLE",
      "outputs": [
        {
          "internalType": "bytes32",
          "name": "",
          "type": "bytes32"
        }
      ],
      "stateMutability": "view",
      "type": "function"
    },
    {
      "inputs": [
        {
          "internalType": "uint256",
          "name": "requestId",
          "type": "uint256"
        }
      ],
      "name": "approveRoleRequest",
      "outputs": [],
      "stateMutability": "nonpayable",
      "type": "function"
    },
    {
      "inputs": [
        {
          "internalType": "uint256",
          "name": "requestId",
          "type": "uint256"
        }
      ],
      "name": "denyRoleRequest",
      "outputs": [],
      "stateMutability": "nonpayable",
      "type": "function"
    },
    {
      "inputs": [
        {
          "internalType": "bytes32",
          "name": "role",
          "type": "bytes32"
        }
      ],
      "name": "getRoleAdmin",
      "outputs": [
        {
          "internalType": "bytes32",
          "name": "",
          "type": "bytes32"
        }
      ],
      "stateMutability": "view",
      "type": "function"
    },
    {
      "inputs": [
        {
          "internalType": "bytes32",
          "name": "role",
          "type": "bytes32"
        },
        {
          "internalType": "address",
          "name": "account",
          "type": "address"
        }
      ],
      "name": "grantRole",
      "outputs": [],
      "stateMutability": "nonpayable",
      "type": "function"
    },
    {
      "inputs": [
        {
          "internalType": "bytes32",
          "name": "role",
          "type": "bytes32"
        },
        {
          "internalType": "address",
          "name": "account",
          "type": "address"
        }
      ],
      "name": "hasRole",
      "outputs": [
        {
          "internalType": "bool",
          "name": "",
          "type": "bool"
        }
      ],
      "stateMutability": "view",
      "type": "function"
    },
    {
      "inputs": [
        {
          "internalType": "uint256",
          "name": "",
          "type": "uint256"
        }
      ],
      "name": "pendingRequests",
      "outputs": [
        {
          "internalType": "address",
          "name": "requester",
          "type": "address"
        },
        {
          "internalType": "bytes32",
          "name": "role",
          "type": "bytes32"
        },
        {
          "internalType": "bool",
          "name": "approved",
          "type": "bool"
        }
      ],
      "stateMutability": "view",
      "type": "function"
    },
    {
      "inputs": [],
      "name": "registry",
      "outputs": [
        {
          "internalType": "contract IVehicleRegistryRoles",
          "name": "",
          "type": "address"
        }
      ],
      "stateMutability": "view",
      "type": "function"
    },
    {
      "inputs": [
        {
          "internalType": "bytes32",
          "name": "role",
          "type": "bytes32"
        },
        {
          "internalType": "address",
          "name": "callerConfirmation",
          "type": "address"
        }
      ],
      "name": "renounceRole",
      "outputs": [],
      "stateMutability": "nonpayable",
      "type": "function"
    },
    {
      "inputs": [
        {
          "internalType": "bytes32",
          "name": "role",
          "type": "bytes32"
        }
      ],
      "name": "requestRole",
      "outputs": [
        {
          "internalType": "uint256",
          "name": "",
          "type": "uint256"
        }
      ],
      "stateMutability": "nonpayable",
      "type": "function"
    },
    {
      "inputs": [
        {
          "internalType": "bytes32",
          "name": "role",
          "type": "bytes32"
        },
        {
          "internalType": "address",
          "name": "account",
          "type": "address"
        }
      ],
      "name": "revokeRole",
      "outputs": [],
      "stateMutability": "nonpayable",
      "type": "function"
    },
    {
      "inputs": [
        {
          "internalType": "bytes32",
          "name": "role",
          "type": "bytes32"
        },
        {
          "internalType": "address",
          "name": "account",
          "type": "address"
        }
      ],
      "name": "revokeUserRole",
      "outputs": [],
      "stateMutability": "nonpayable",
      "type": "function"
    },
    {
      "inputs": [
        {
          "internalType": "bytes4",
          "name": "interfaceId",
          "type": "bytes4"
        }
      ],
      "name": "supportsInterface",
      "outputs": [
        {
          "internalType": "bool",
          "name": "",
          "type": "bool"
        }
      ],
      "stateMutability": "view",
      "type": "function"
    }
  ],
  "bytecode": "0x608060405234801561000f575f5ffd5b506040516117f23803806117f283398181016040528101906100319190610247565b6100435f5f1b3361008a60201b60201c565b508060035f6101000a81548173ffffffffffffffffffffffffffffffffffffffff021916908373ffffffffffffffffffffffffffffffffffffffff16021790555050610272565b5f61009b838361017f60201b60201c565b6101755760015f5f8581526020019081526020015f205f015f8473ffffffffffffffffffffffffffffffffffffffff1673ffffffffffffffffffffffffffffffffffffffff1681526020019081526020015f205f6101000a81548160ff0219169083151502179055506101126101e260201b60201c565b73ffffffffffffffffffffffffffffffffffffffff168273ffffffffffffffffffffffffffffffffffffffff16847f2f8788117e7eff1d82e926ec794901d17c78024a50270940304540a733656f0d60405160405180910390a460019050610179565b5f90505b92915050565b5f5f5f8481526020019081526020015f205f015f8373ffffffffffffffffffffffffffffffffffffffff1673ffffffffffffffffffffffffffffffffffffffff1681526020019081526020015f205f9054906101000a900460ff16905092915050565b5f33905090565b5f5ffd5b5f73ffffffffffffffffffffffffffffffffffffffff82169050919050565b5f610216826101ed565b9050919050565b6102268161020c565b8114610230575f5ffd5b50565b5f815190506102418161021d565b92915050565b5f6020828403121561025c5761025b6101e9565b5b5f61026984828501610233565b91505092915050565b6115738061027f5f395ff3fe608060405234801561000f575f5ffd5b50600436106100fe575f3560e01c806387e1143411610095578063d547741f11610064578063d547741f146102ac578063e51f5eb2146102c8578063e58378bb146102e4578063e668ad0514610302576100fe565b806387e114341461022657806391d1485414610242578063a217fddf14610272578063bc7d2e7814610290576100fe565b806336568abe116100d157806336568abe1461019c5780633c652a9a146101b85780636e1d616e146101ea5780637b10399914610208576100fe565b806301ffc9a714610102578063248a9ca3146101325780632f2ff15d1461016257806334d6ff4c1461017e575b5f5ffd5b61011c60048036038101906101179190611011565b610332565b6040516101299190611056565b60405180910390f35b61014c600480360381019061014791906110a2565b6103ab565b60405161015991906110dc565b60405180910390f35b61017c6004803603810190610177919061114f565b6103c7565b005b6101866103e9565b60405161019391906110dc565b60405180910390f35b6101b660048036038101906101b1919061114f565b61040d565b005b6101d260048036038101906101cd91906111c0565b610488565b6040516101e1939291906111fa565b60405180910390f35b6101f26104d9565b6040516101ff91906110dc565b60405180910390f35b6102106104fd565b60405161021d919061128a565b60405180910390f35b610240600480360381019061023b91906111c0565b610522565b005b61025c6004803603810190610257919061114f565b6106f0565b6040516102699190611056565b60405180910390f35b61027a610753565b60405161028791906110dc565b60405180910390f35b6102aa60048036038101906102a5919061114f565b610759565b005b6102c660048036038101906102c1919061114f565b6108a9565b005b6102e260048036038101906102dd91906111c0565b6108cb565b005b6102ec610b11565b6040516102f991906110dc565b60405180910390f35b61031c600480360381019061031791906110a2565b610b35565b60405161032991906112b2565b60405180910390f35b5f7f7965db0b000000000000000000000000000000000000000000000000000000007bffffffffffffffffffffffffffffffffffffffffffffffffffffffff1916827bffffffffffffffffffffffffffffffffffffffffffffffffffffffff191614806103a457506103a382610d11565b5b9050919050565b5f5f5f8381526020019081526020015f20600101549050919050565b6103d0826103ab565b6103d981610d7a565b6103e38383610d8e565b50505050565b7fcf75f067314df4d0527f2a9e12148d8bd7c8a3f7235b2171d24fa195d2c3ecb981565b610415610e77565b73ffffffffffffffffffffffffffffffffffffffff168173ffffffffffffffffffffffffffffffffffffffff1614610479576040517f6697b23200000000000000000000000000000000000000000000000000000000815260040160405180910390fd5b6104838282610e7e565b505050565b6001602052805f5260405f205f91509050805f015f9054906101000a900473ffffffffffffffffffffffffffffffffffffffff1690806001015490806002015f9054906101000a900460ff16905083565b7f59a1c48e5837ad7a7f3dcedcbe129bf3249ec4fbf651fd4f5e2600ead39fe2f581565b60035f9054906101000a900473ffffffffffffffffffffffffffffffffffffffff1681565b5f5f1b61052e81610d7a565b5f60015f8481526020019081526020015f2090505f73ffffffffffffffffffffffffffffffffffffffff16815f015f9054906101000a900473ffffffffffffffffffffffffffffffffffffffff1673ffffffffffffffffffffffffffffffffffffffff16036105d2576040517f08c379a00000000000000000000000000000000000000000000000000000000081526004016105c990611325565b60405180910390fd5b806002015f9054906101000a900460ff1615610623576040517f08c379a000000000000000000000000000000000000000000000000000000000815260040161061a9061138d565b60405180910390fd5b805f015f9054906101000a900473ffffffffffffffffffffffffffffffffffffffff1673ffffffffffffffffffffffffffffffffffffffff16837f40470a0926c1482d55d5a2367d713b3970825129162bd1e660abe97dff2e0fce836001015460405161069091906110dc565b60405180910390a360015f8481526020019081526020015f205f5f82015f6101000a81549073ffffffffffffffffffffffffffffffffffffffff0219169055600182015f9055600282015f6101000a81549060ff02191690555050505050565b5f5f5f8481526020019081526020015f205f015f8373ffffffffffffffffffffffffffffffffffffffff1673ffffffffffffffffffffffffffffffffffffffff1681526020019081526020015f205f9054906101000a900460ff16905092915050565b5f5f1b81565b5f5f1b61076581610d7a565b7fcf75f067314df4d0527f2a9e12148d8bd7c8a3f7235b2171d24fa195d2c3ecb98314806107b257507f59a1c48e5837ad7a7f3dcedcbe129bf3249ec4fbf651fd4f5e2600ead39fe2f583145b806107dc57507fb19546dff01e856fb3f010c267a7b1c60363cf8a4664e21cc89c26224620214e83145b61081b576040517f08c379a0000000000000000000000000000000000000000000000000000000008152600401610812906113f5565b60405180910390fd5b60035f9054906101000a900473ffffffffffffffffffffffffffffffffffffffff1673ffffffffffffffffffffffffffffffffffffffff1663d9eca82f84846040518363ffffffff1660e01b8152600401610877929190611413565b5f604051808303815f87803b15801561088e575f5ffd5b505af11580156108a0573d5f5f3e3d5ffd5b50505050505050565b6108b2826103ab565b6108bb81610d7a565b6108c58383610e7e565b50505050565b5f5f1b6108d781610d7a565b5f60015f8481526020019081526020015f2090505f73ffffffffffffffffffffffffffffffffffffffff16815f015f9054906101000a900473ffffffffffffffffffffffffffffffffffffffff1673ffffffffffffffffffffffffffffffffffffffff160361097b576040517f08c379a000000000000000000000000000000000000000000000000000000000815260040161097290611325565b60405180910390fd5b806002015f9054906101000a900460ff16156109cc576040517f08c379a00000000000000000000000000000000000000000000000000000000081526004016109c39061138d565b60405180910390fd5b60035f9054906101000a900473ffffffffffffffffffffffffffffffffffffffff1673ffffffffffffffffffffffffffffffffffffffff1663a5de2e2c8260010154835f015f9054906101000a900473ffffffffffffffffffffffffffffffffffffffff166040518363ffffffff1660e01b8152600401610a4e929190611413565b5f604051808303815f87803b158015610a65575f5ffd5b505af1158015610a77573d5f5f3e3d5ffd5b505050506001816002015f6101000a81548160ff021916908315150217905550805f015f9054906101000a900473ffffffffffffffffffffffffffffffffffffffff1673ffffffffffffffffffffffffffffffffffffffff16837f48444b3ca9cd32b9781cc86b2c054a903bda8a927154afb74c798fbed23f5ea88360010154604051610b0491906110dc565b60405180910390a3505050565b7fb19546dff01e856fb3f010c267a7b1c60363cf8a4664e21cc89c26224620214e81565b5f7fcf75f067314df4d0527f2a9e12148d8bd7c8a3f7235b2171d24fa195d2c3ecb9821480610b8357507f59a1c48e5837ad7a7f3dcedcbe129bf3249ec4fbf651fd4f5e2600ead39fe2f582145b80610bad57507fb19546dff01e856fb3f010c267a7b1c60363cf8a4664e21cc89c26224620214e82145b610bec576040517f08c379a0000000000000000000000000000000000000000000000000000000008152600401610be390611484565b60405180910390fd5b5f60025f815480929190610bff906114cf565b91905055905060405180606001604052803373ffffffffffffffffffffffffffffffffffffffff1681526020018481526020015f151581525060015f8381526020019081526020015f205f820151815f015f6101000a81548173ffffffffffffffffffffffffffffffffffffffff021916908373ffffffffffffffffffffffffffffffffffffffff160217905550602082015181600101556040820151816002015f6101000a81548160ff0219169083151502179055509050503373ffffffffffffffffffffffffffffffffffffffff16817f163ea1e23b51aa777f9cdaf3c6ae4c3055d602c9ca7f59d4b516bbb40222f59e85604051610d0091906110dc565b60405180910390a380915050919050565b5f7f01ffc9a7000000000000000000000000000000000000000000000000000000007bffffffffffffffffffffffffffffffffffffffffffffffffffffffff1916827bffffffffffffffffffffffffffffffffffffffffffffffffffffffff1916149050919050565b610d8b81610d86610e77565b610f67565b50565b5f610d9983836106f0565b610e6d5760015f5f8581526020019081526020015f205f015f8473ffffffffffffffffffffffffffffffffffffffff1673ffffffffffffffffffffffffffffffffffffffff1681526020019081526020015f205f6101000a81548160ff021916908315150217905550610e0a610e77565b73ffffffffffffffffffffffffffffffffffffffff168273ffffffffffffffffffffffffffffffffffffffff16847f2f8788117e7eff1d82e926ec794901d17c78024a50270940304540a733656f0d60405160405180910390a460019050610e71565b5f90505b92915050565b5f33905090565b5f610e8983836106f0565b15610f5d575f5f5f8581526020019081526020015f205f015f8473ffffffffffffffffffffffffffffffffffffffff1673ffffffffffffffffffffffffffffffffffffffff1681526020019081526020015f205f6101000a81548160ff021916908315150217905550610efa610e77565b73ffffffffffffffffffffffffffffffffffffffff168273ffffffffffffffffffffffffffffffffffffffff16847ff6391f5c32d9c69d2a47ea670b442974b53935d1edc7fd64eb21e047a839171b60405160405180910390a460019050610f61565b5f90505b92915050565b610f7182826106f0565b610fb45780826040517fe2517d3f000000000000000000000000000000000000000000000000000000008152600401610fab929190611516565b60405180910390fd5b5050565b5f5ffd5b5f7fffffffff0000000000000000000000000000000000000000000000000000000082169050919050565b610ff081610fbc565b8114610ffa575f5ffd5b50565b5f8135905061100b81610fe7565b92915050565b5f6020828403121561102657611025610fb8565b5b5f61103384828501610ffd565b91505092915050565b5f8115159050919050565b6110508161103c565b82525050565b5f6020820190506110695f830184611047565b92915050565b5f819050919050565b6110818161106f565b811461108b575f5ffd5b50565b5f8135905061109c81611078565b92915050565b5f602082840312156110b7576110b6610fb8565b5b5f6110c48482850161108e565b91505092915050565b6110d68161106f565b82525050565b5f6020820190506110ef5f8301846110cd565b92915050565b5f73ffffffffffffffffffffffffffffffffffffffff82169050919050565b5f61111e826110f5565b9050919050565b61112e81611114565b8114611138575f5ffd5b50565b5f8135905061114981611125565b92915050565b5f5f6040838503121561116557611164610fb8565b5b5f6111728582860161108e565b92505060206111838582860161113b565b9150509250929050565b5f819050919050565b61119f8161118d565b81146111a9575f5ffd5b50565b5f813590506111ba81611196565b92915050565b5f602082840312156111d5576111d4610fb8565b5b5f6111e2848285016111ac565b91505092915050565b6111f481611114565b82525050565b5f60608201905061120d5f8301866111eb565b61121a60208301856110cd565b6112276040830184611047565b949350505050565b5f819050919050565b5f61125261124d611248846110f5565b61122f565b6110f5565b9050919050565b5f61126382611238565b9050919050565b5f61127482611259565b9050919050565b6112848161126a565b82525050565b5f60208201905061129d5f83018461127b565b92915050565b6112ac8161118d565b82525050565b5f6020820190506112c55f8301846112a3565b92915050565b5f82825260208201905092915050565b7f4e6f2073756368207265717565737400000000000000000000000000000000005f82015250565b5f61130f600f836112cb565b915061131a826112db565b602082019050919050565b5f6020820190508181035f83015261133c81611303565b9050919050565b7f416c72656164792070726f6365737365640000000000000000000000000000005f82015250565b5f6113776011836112cb565b915061138282611343565b602082019050919050565b5f6020820190508181035f8301526113a48161136b565b9050919050565b7f526f6c65206e6f74206d616e61676561626c65000000000000000000000000005f82015250565b5f6113df6013836112cb565b91506113ea826113ab565b602082019050919050565b5f6020820190508181035f83015261140c816113d3565b9050919050565b5f6040820190506114265f8301856110cd565b61143360208301846111eb565b9392505050565b7f526f6c65206e6f74207265717565737461626c650000000000000000000000005f82015250565b5f61146e6014836112cb565b91506114798261143a565b602082019050919050565b5f6020820190508181035f83015261149b81611462565b9050919050565b7f4e487b71000000000000000000000000000000000000000000000000000000005f52601160045260245ffd5b5f6114d98261118d565b91507fffffffffffffffffffffffffffffffffffffffffffffffffffffffffffffffff820361150b5761150a6114a2565b5b600182019050919050565b5f6040820190506115295f8301856111eb565b61153660208301846110cd565b939250505056fea2646970667358221220a06f65d8ed2a58c38ceb3519f716b65ee602ccc494d11417d048fa8e2117749464736f6c634300081c0033",
  "linkReferences": {},
  "deployedLinkReferences": {},
  "immutableReferences": {},
  "inputSourceName": "project/contracts/RoleRequestManager.sol",
  "buildInfoId": "solc-0_8_28-a79b5e60aea5fbe61e714901b01e50928a287423"
}