{
  "_format": "hh3-artifact-1",
  "contractName": "VehicleRegistry",
  "sourceName": "contracts/VehicleRegistry.sol",
  "abi": [
    {
      "inputs": [],
      "stateMutability": "nonpayable",
      "type": "constructor"
    },
    {
      "inputs": [],
      "name": "AccessControlBadConfirmation",
      "type": "error"
    },
    {
      "inputs": [
        {
          "internalType": "address",
          "name": "account",
          "type": "address"
        },
        {
          "internalType": "bytes32",
          "name": "neededRole",
          "type": "bytes32"
        }
      ],
      "name": "AccessControlUnauthorizedAccount",
      "type": "error"
    },
    {
      "inputs": [
        {
          "internalType": "address",
          "name": "sender",
          "type": "address"
        },
        {
          "internalType": "uint256",
          "name": "tokenId",
          "type": "uint256"
        },
        {
          "internalType": "address",
          "name": "owner",
          "type": "address"
        }
      ],
      "name": "ERC721IncorrectOwner",
      "type": "error"
    },
    {
      "inputs": [
        {
          "internalType": "address",
          "name": "operator",
          "type": "address"
        },
        {
          "internalType": "uint256",
          "name": "tokenId",
          "type": "uint256"
        }
      ],
      "name": "ERC721InsufficientApproval",
      "type": "error"
    },
    {
      "inputs": [
        {
          "internalType": "address",
          "name": "approver",
          "type": "address"
        }
      ],
      "name": "ERC721InvalidApprover",
      "type": "error"
    },
    {
      "inputs": [
        {
          "internalType": "address",
          "name": "operator",
          "type": "address"
        }
      ],
      "name": "ERC721InvalidOperator",
      "type": "error"
    },
    {
      "inputs": [
        {
          "internalType": "address",
          "name": "owner",
          "type": "address"
        }
      ],
      "name": "ERC721InvalidOwner",
      "type": "error"
    },
    {
      "inputs": [
        {
          "internalType": "address",
          "name": "receiver",
          "type": "address"
        }
      ],
      "name": "ERC721InvalidReceiver",
      "type": "error"
    },
    {
      "inputs": [
        {
          "internalType": "address",
          "name": "sender",
          "type": "address"
        }
      ],
      "name": "ERC721InvalidSender",
      "type": "error"
    },
    {
      "inputs": [
        {
          "internalType": "uint256",
          "name": "tokenId",
          "type": "uint256"
        }
      ],
      "name": "ERC721NonexistentToken",
      "type": "error"
    },
    {
      "anonymous": false,
      "inputs": [
        {
          "indexed": true,
          "internalType": "address",
          "name": "owner",
          "type": "address"
        },
        {
          "indexed": true,
          "internalType": "address",
          "name": "approved",
          "type": "address"
        },
        {
          "indexed": true,
          "internalType": "uint256",
          "name": "tokenId",
          "type": "uint256"
        }
      ],
      "name": "Approval",
      "type": "event"
    },
    {
      "anonymous": false,
      "inputs": [
        {
          "indexed": true,
          "internalType": "address",
          "name": "owner",
          "type": "address"
        },
        {
          "indexed": true,
          "internalType": "address",
          "name": "operator",
          "type": "address"
        },
        {
          "indexed": false,
          "internalType": "bool",
          "name": "approved",
          "type": "bool"
        }
      ],
      "name": "ApprovalForAll",
      "type": "event"
    },
    {
      "anonymous": false,
      "inputs": [
        {
          "indexed": true,
          "internalType": "bytes32",
          "name": "role",
          "type": "bytes32"
        },
        {
          "indexed": true,
          "internalType": "bytes32",
          "name": "previousAdminRole",
          "type": "bytes32"
        },
        {
          "indexed": true,
          "internalType": "bytes32",
          "name": "newAdminRole",
          "type": "bytes32"
        }
      ],
      "name": "RoleAdminChanged",
      "type": "event"
    },
    {
      "anonymous": false,
      "inputs": [
        {
          "indexed": true,
          "internalType": "bytes32",
          "name": "role",
          "type": "bytes32"
        },
        {
          "indexed": true,
          "internalType": "address",
          "name": "account",
          "type": "address"
        },
        {
          "indexed": true,
          "internalType": "address",
          "name": "sender",
          "type": "address"
        }
      ],
      "name": "RoleGranted",
      "type": "event"
    },
    {
      "anonymous": false,
      "inputs": [
        {
          "indexed": true,
          "internalType": "bytes32",
          "name": "role",
          "type": "bytes32"
        },
        {
          "indexed": true,
          "internalType": "address",
          "name": "account",
          "type": "address"
        },
        {
          "indexed": true,
          "internalType": "address",
          "name": "sender",
          "type": "address"
        }
      ],
      "name": "RoleRevoked",
      "type": "event"
    },
    {
      "anonymous": false,
      "inputs": [
        {
          "indexed": true,
          "internalType": "address",
          "name": "from",
          "type": "address"
        },
        {
          "indexed": true,
          "internalType": "address",
          "name": "to",
          "type": "address"
        },
        {
          "indexed": true,
          "internalType": "uint256",
          "name": "tokenId",
          "type": "uint256"
        }
      ],
      "name": "Transfer",
      "type": "event"
    },
    {
      "anonymous": false,
      "inputs": [
        {
          "indexed": true,
          "internalType": "uint256",
          "name": "requestId",
          "type": "uint256"
        },
        {
          "indexed": true,
          "internalType": "uint256",
          "name": "tokenId",
          "type": "uint256"
        },
        {
          "indexed": true,
          "internalType": "address",
          "name": "owner",
          "type": "address"
        },
        {
          "indexed": false,
          "internalType": "string",
          "name": "certIpfsHash",
          "type": "string"
        }
      ],
      "name": "VehicleRegistrationApproved",
      "type": "event"
    },
    {
      "anonymous": false,
      "inputs": [
        {
          "indexed": true,
          "internalType": "uint256",
          "name": "requestId",
          "type": "uint256"
        },
        {
          "indexed": true,
          "internalType": "address",
          "name": "auditor",
          "type": "address"
        },
        {
          "indexed": true,
          "internalType": "address",
          "name": "owner",
          "type": "address"
        },
        {
          "indexed": false,
          "internalType": "string",
          "name": "reason",
          "type": "string"
        }
      ],
      "name": "VehicleRegistrationDenied",
      "type": "event"
    },
    {
      "anonymous": false,
      "inputs": [
        {
          "indexed": true,
          "internalType": "uint256",
          "name": "requestId",
          "type": "uint256"
        },
        {
          "indexed": true,
          "internalType": "address",
          "name": "requester",
          "type": "address"
        },
        {
          "indexed": true,
          "internalType": "address",
          "name": "owner",
          "type": "address"
        },
        {
          "indexed": false,
          "internalType": "string",
          "name": "regIpfsHash",
          "type": "string"
        }
      ],
      "name": "VehicleRegistrationRequested",
      "type": "event"
    },
    {
      "inputs": [],
      "name": "AUDITOR_ROLE",
      "outputs": [
        {
          "internalType": "bytes32",
          "name": "",
          "type": "bytes32"
        }
      ],
      "stateMutability": "view",
      "type": "function"
    },
    {
      "inputs": [],
      "name": "BURNER_ROLE",
      "outputs": [
        {
          "internalType": "bytes32",
          "name": "",
          "type": "bytes32"
        }
      ],
      "stateMutability": "view",
      "type": "function"
    },
    {
      "inputs": [],
      "name": "DEALER_ROLE",
      "outputs": [
        {
          "internalType": "bytes32",
          "name": "",
          "type": "bytes32"
        }
      ],
      "stateMutability": "view",
      "type": "function"
    },
    {
      "inputs": [],
      "name": "DEFAULT_ADMIN_ROLE",
      "outputs": [
        {
          "internalType": "bytes32",
          "name": "",
          "type": "bytes32"
        }
      ],
      "stateMutability": "view",
      "type": "function"
    },
    {
      "inputs": [],
      "name": "MINTER_ROLE",
      "outputs": [
        {
          "internalType": "bytes32",
          "name": "",
          "type": "bytes32"
        }
      ],
      "stateMutability": "view",
      "type": "function"
    },
    {
      "inputs": [],
      "name": "OWNER_ROLE",
      "outputs": [
        {
          "internalType": "bytes32",
          "name": "",
          "type": "bytes32"
        }
      ],
      "stateMutability": "view",
      "type": "function"
    },
    {
      "inputs": [],
      "name": "ROLE_MANAGER_ROLE",
      "outputs": [
        {
          "internalType": "bytes32",
          "name": "",
          "type": "bytes32"
        }
      ],
      "stateMutability": "view",
      "type": "function"
    },
    {
      "inputs": [],
      "name": "TRANSFER_ROLE",
      "outputs": [
        {
          "internalType": "bytes32",
          "name": "",
          "type": "bytes32"
        }
      ],
      "stateMutability": "view",
      "type": "function"
    },
    {
      "inputs": [],
      "name": "UPDATER_ROLE",
      "outputs": [
        {
          "internalType": "bytes32",
          "name": "",
          "type": "bytes32"
        }
      ],
      "stateMutability": "view",
      "type": "function"
    },
    {
      "inputs": [
        {
          "internalType": "address",
          "name": "to",
          "type": "address"
        },
        {
          "internalType": "uint256",
          "name": "tokenId",
          "type": "uint256"
        }
      ],
      "name": "approve",
      "outputs": [],
      "stateMutability": "nonpayable",
      "type": "function"
    },
    {
      "inputs": [
        {
          "internalType": "uint256",
          "name": "requestId",
          "type": "uint256"
        },
        {
          "internalType": "string",
          "name": "certIpfsHash",
          "type": "string"
        }
      ],
      "name": "approveVehicleRegistration",
      "outputs": [],
      "stateMutability": "nonpayable",
      "type": "function"
    },
    {
      "inputs": [
        {
          "internalType": "address",
          "name": "owner",
          "type": "address"
        }
      ],
      "name": "balanceOf",
      "outputs": [
        {
          "internalType": "uint256",
          "name": "",
          "type": "uint256"
        }
      ],
      "stateMutability": "view",
      "type": "function"
    },
    {
      "inputs": [
        {
          "internalType": "uint256",
          "name": "requestId",
          "type": "uint256"
        },
        {
          "internalType": "string",
          "name": "reason",
          "type": "string"
        }
      ],
      "name": "denyVehicleRegistration",
      "outputs": [],
      "stateMutability": "nonpayable",
      "type": "function"
    },
    {
      "inputs": [
        {
          "internalType": "uint256",
          "name": "tokenId",
          "type": "uint256"
        }
      ],
      "name": "fetchVehicleCertificate",
      "outputs": [
        {
          "components": [
            {
              "internalType": "address",
              "name": "ownerAddress",
              "type": "address"
            },
            {
              "internalType": "uint256",
              "name": "registrationDate",
              "type": "uint256"
            },
            {
              "internalType": "address",
              "name": "issuerAddress",
              "type": "address"
            },
            {
              "internalType": "string",
              "name": "certIpfsHash",
              "type": "string"
            }
          ],
          "internalType": "struct IVehicleRegistry.VehicleCertificate",
          "name": "",
          "type": "tuple"
        }
      ],
      "stateMutability": "view",
      "type": "function"
    },
    {
      "inputs": [
        {
          "internalType": "uint256",
          "name": "requestId",
          "type": "uint256"
        }
      ],
      "name": "fetchVehicleRegistrationRequest",
      "outputs": [
        {
          "components": [
            {
              "internalType": "address",
              "name": "ownerAddress",
              "type": "address"
            },
            {
              "internalType": "address",
              "name": "requesterAddress",
              "type": "address"
            },
            {
              "internalType": "uint256",
              "name": "registrationDate",
              "type": "uint256"
            },
            {
              "internalType": "address",
              "name": "issuerAddress",
              "type": "address"
            },
            {
              "internalType": "enum VehicleStatus",
              "name": "status",
              "type": "uint8"
            },
            {
              "internalType": "string",
              "name": "regIpfsHash",
              "type": "string"
            },
            {
              "internalType": "bool",
              "name": "minted",
              "type": "bool"
            }
          ],
          "internalType": "struct IVehicleRegistry.VehicleRegistration",
          "name": "",
          "type": "tuple"
        }
      ],
      "stateMutability": "view",
      "type": "function"
    },
    {
      "inputs": [
        {
          "internalType": "uint256",
          "name": "tokenId",
          "type": "uint256"
        }
      ],
      "name": "getApproved",
      "outputs": [
        {
          "internalType": "address",
          "name": "",
          "type": "address"
        }
      ],
      "stateMutability": "view",
      "type": "function"
    },
    {
      "inputs": [
        {
          "internalType": "bytes32",
          "name": "role",
          "type": "bytes32"
        }
      ],
      "name": "getRoleAdmin",
      "outputs": [
        {
          "internalType": "bytes32",
          "name": "",
          "type": "bytes32"
        }
      ],
      "stateMutability": "view",
      "type": "function"
    },
    {
      "inputs": [
        {
          "internalType": "bytes32",
          "name": "role",
          "type": "bytes32"
        },
        {
          "internalType": "address",
          "name": "account",
          "type": "address"
        }
      ],
      "name": "grantManagedRole",
      "outputs": [],
      "stateMutability": "nonpayable",
      "type": "function"
    },
    {
      "inputs": [
        {
          "internalType": "bytes32",
          "name": "role",
          "type": "bytes32"
        },
        {
          "internalType": "address",
          "name": "account",
          "type": "address"
        }
      ],
      "name": "grantRole",
      "outputs": [],
      "stateMutability": "nonpayable",
      "type": "function"
    },
    {
      "inputs": [
        {
          "internalType": "bytes32",
          "name": "role",
          "type": "bytes32"
        },
        {
          "internalType": "address",
          "name": "account",
          "type": "address"
        }
      ],
      "name": "hasRole",
      "outputs": [
        {
          "internalType": "bool",
          "name": "",
          "type": "bool"
        }
      ],
      "stateMutability": "view",
      "type": "function"
    },
    {
      "inputs": [
        {
          "internalType": "address",
          "name": "owner",
          "type": "address"
        },
        {
          "internalType": "address",
          "name": "operator",
          "type": "address"
        }
      ],
      "name": "isApprovedForAll",
      "outputs": [
        {
          "internalType": "bool",
          "name": "",
          "type": "bool"
        }
      ],
      "stateMutability": "view",
      "type": "function"
    },
    {
      "inputs": [],
      "name": "name",
      "outputs": [
        {
          "internalType": "string",
          "name": "",
          "type": "string"
        }
      ],
      "stateMutability": "view",
      "type": "function"
    },
    {
      "inputs": [
        {
          "internalType": "uint256",
          "name": "tokenId",
          "type": "uint256"
        }
      ],
      "name": "ownerOf",
      "outputs": [
        {
          "internalType": "address",
          "name": "",
          "type": "address"
        }
      ],
      "stateMutability": "view",
      "type": "function"
    },
    {
      "inputs": [
        {
          "internalType": "bytes32",
          "name": "role",
          "type": "bytes32"
        },
        {
          "internalType": "address",
          "name": "callerConfirmation",
          "type": "address"
        }
      ],
      "name": "renounceRole",
      "outputs": [],
      "stateMutability": "nonpayable",
      "type": "function"
    },
    {
      "inputs": [
        {
          "internalType": "string",
          "name": "regIpfsHash",
          "type": "string"
        },
        {
          "internalType": "address",
          "name": "ownerAddress",
          "type": "address"
        }
      ],
      "name": "requestVehicleRegistration",
      "outputs": [
        {
          "internalType": "uint256",
          "name": "",
          "type": "uint256"
        }
      ],
      "stateMutability": "nonpayable",
      "type": "function"
    },
    {
      "inputs": [
        {
          "internalType": "bytes32",
          "name": "role",
          "type": "bytes32"
        },
        {
          "internalType": "address",
          "name": "account",
          "type": "address"
        }
      ],
      "name": "revokeManagedRole",
      "outputs": [],
      "stateMutability": "nonpayable",
      "type": "function"
    },
    {
      "inputs": [
        {
          "internalType": "bytes32",
          "name": "role",
          "type": "bytes32"
        },
        {
          "internalType": "address",
          "name": "account",
          "type": "address"
        }
      ],
      "name": "revokeRole",
      "outputs": [],
      "stateMutability": "nonpayable",
      "type": "function"
    },
    {
      "inputs": [
        {
          "internalType": "address",
          "name": "from",
          "type": "address"
        },
        {
          "internalType": "address",
          "name": "to",
          "type": "address"
        },
        {
          "internalType": "uint256",
          "name": "tokenId",
          "type": "uint256"
        }
      ],
      "name": "safeTransferFrom",
      "outputs": [],
      "stateMutability": "nonpayable",
      "type": "function"
    },
    {
      "inputs": [
        {
          "internalType": "address",
          "name": "from",
          "type": "address"
        },
        {
          "internalType": "address",
          "name": "to",
          "type": "address"
        },
        {
          "internalType": "uint256",
          "name": "tokenId",
          "type": "uint256"
        },
        {
          "internalType": "bytes",
          "name": "data",
          "type": "bytes"
        }
      ],
      "name": "safeTransferFrom",
      "outputs": [],
      "stateMutability": "nonpayable",
      "type": "function"
    },
    {
      "inputs": [
        {
          "internalType": "address",
          "name": "operator",
          "type": "address"
        },
        {
          "internalType": "bool",
          "name": "approved",
          "type": "bool"
        }
      ],
      "name": "setApprovalForAll",
      "outputs": [],
      "stateMutability": "nonpayable",
      "type": "function"
    },
    {
      "inputs": [
        {
          "internalType": "bytes4",
          "name": "interfaceId",
          "type": "bytes4"
        }
      ],
      "name": "supportsInterface",
      "outputs": [
        {
          "internalType": "bool",
          "name": "",
          "type": "bool"
        }
      ],
      "stateMutability": "view",
      "type": "function"
    },
    {
      "inputs": [],
      "name": "symbol",
      "outputs": [
        {
          "internalType": "string",
          "name": "",
          "type": "string"
        }
      ],
      "stateMutability": "view",
      "type": "function"
    },
    {
      "inputs": [
        {
          "internalType": "uint256",
          "name": "tokenId",
          "type": "uint256"
        }
      ],
      "name": "tokenURI",
      "outputs": [
        {
          "internalType": "string",
          "name": "",
          "type": "string"
        }
      ],
      "stateMutability": "view",
      "type": "function"
    },
    {
      "inputs": [
        {
          "internalType": "address",
          "name": "from",
          "type": "address"
        },
        {
          "internalType": "address",
          "name": "to",
          "type": "address"
        },
        {
          "internalType": "uint256",
          "name": "tokenId",
          "type": "uint256"
        }
      ],
      "name": "transferFrom",
      "outputs": [],
      "stateMutability": "nonpayable",
      "type": "function"
    },
    {
      "inputs": [
        {
          "internalType": "uint256",
          "name": "",
          "type": "uint256"
        }
      ],
      "name": "vehicleCertificates",
      "outputs": [
        {
          "internalType": "address",
          "name": "ownerAddress",
          "type": "address"
        },
        {
          "internalType": "uint256",
          "name": "registrationDate",
          "type": "uint256"
        },
        {
          "internalType": "address",
          "name": "issuerAddress",
          "type": "address"
        },
        {
          "internalType": "string",
          "name": "certIpfsHash",
          "type": "string"
        }
      ],
      "stateMutability": "view",
      "type": "function"
    },
    {
      "inputs": [
        {
          "internalType": "uint256",
          "name": "",
          "type": "uint256"
        }
      ],
      "name": "vehicleRegistrations",
      "outputs": [
        {
          "internalType": "address",
          "name": "ownerAddress",
          "type": "address"
        },
        {
          "internalType": "address",
          "name": "requesterAddress",
          "type": "address"
        },
        {
          "internalType": "uint256",
          "name": "registrationDate",
          "type": "uint256"
        },
        {
          "internalType": "address",
          "name": "issuerAddress",
          "type": "address"
        },
        {
          "internalType": "enum VehicleStatus",
          "name": "status",
          "type": "uint8"
        },
        {
          "internalType": "string",
          "name": "regIpfsHash",
          "type": "string"
        },
        {
          "internalType": "bool",
          "name": "minted",
          "type": "bool"
        }
      ],
      "stateMutability": "view",
      "type": "function"
    }
  ],
  "bytecode": "0x608060405234801561000f575f5ffd5b506040518060400160405280600f81526020017f56656869636c65526567697374727900000000000000000000000000000000008152506040518060400160405280600381526020017f5652450000000000000000000000000000000000000000000000000000000000815250815f908161008a9190610841565b50806001908161009a9190610841565b5050506100af5f5f1b3361042760201b60201c565b506101007fcf75f067314df4d0527f2a9e12148d8bd7c8a3f7235b2171d24fa195d2c3ecb97f0f6ee822d2ee125e4ce6edbae6c10a76fa9fd4617e0399ab687226fa3344210061051d60201b60201c565b6101507f59a1c48e5837ad7a7f3dcedcbe129bf3249ec4fbf651fd4f5e2600ead39fe2f57f0f6ee822d2ee125e4ce6edbae6c10a76fa9fd4617e0399ab687226fa3344210061051d60201b60201c565b6101a07fb19546dff01e856fb3f010c267a7b1c60363cf8a4664e21cc89c26224620214e7f0f6ee822d2ee125e4ce6edbae6c10a76fa9fd4617e0399ab687226fa3344210061051d60201b60201c565b6101d27f9f2df0fed2c77648de5860a4cc508cd0818c85b8b8a1ab4ceeef8d981c8956a65f5f1b61051d60201b60201c565b6102047f3c11d16cbaffd01df69ce1c404f6340ee057498f5f00246190ea54220576a8485f5f1b61051d60201b60201c565b6102367f8502233096d909befbda0999bb8ea2f3a6be3c138b9fbf003752a4c8bce86f6c5f5f1b61051d60201b60201c565b6102687f73e573f9566d61418a34d5de3ff49360f9c51fec37f7486551670290f6285dab5f5f1b61051d60201b60201c565b61029a7f0f6ee822d2ee125e4ce6edbae6c10a76fa9fd4617e0399ab687226fa334421005f5f1b61051d60201b60201c565b6102ca7f0f6ee822d2ee125e4ce6edbae6c10a76fa9fd4617e0399ab687226fa334421003361042760201b60201c565b506102fb7f9f2df0fed2c77648de5860a4cc508cd0818c85b8b8a1ab4ceeef8d981c8956a63361042760201b60201c565b5061032c7f3c11d16cbaffd01df69ce1c404f6340ee057498f5f00246190ea54220576a8483361042760201b60201c565b5061035d7f8502233096d909befbda0999bb8ea2f3a6be3c138b9fbf003752a4c8bce86f6c3361042760201b60201c565b5061038e7f73e573f9566d61418a34d5de3ff49360f9c51fec37f7486551670290f6285dab3361042760201b60201c565b506103bf7fcf75f067314df4d0527f2a9e12148d8bd7c8a3f7235b2171d24fa195d2c3ecb93361042760201b60201c565b506103f07fb19546dff01e856fb3f010c267a7b1c60363cf8a4664e21cc89c26224620214e3361042760201b60201c565b506104217f59a1c48e5837ad7a7f3dcedcbe129bf3249ec4fbf651fd4f5e2600ead39fe2f53361042760201b60201c565b50610910565b5f610438838361057c60201b60201c565b61051357600160065f8581526020019081526020015f205f015f8473ffffffffffffffffffffffffffffffffffffffff1673ffffffffffffffffffffffffffffffffffffffff1681526020019081526020015f205f6101000a81548160ff0219169083151502179055506104b06105e060201b60201c565b73ffffffffffffffffffffffffffffffffffffffff168273ffffffffffffffffffffffffffffffffffffffff16847f2f8788117e7eff1d82e926ec794901d17c78024a50270940304540a733656f0d60405160405180910390a460019050610517565b5f90505b92915050565b5f61052d836105e760201b60201c565b90508160065f8581526020019081526020015f20600101819055508181847fbd79b86ffe0ab8e8776151514217cd7cacd52c909f66475c3af44e129f0b00ff60405160405180910390a4505050565b5f60065f8481526020019081526020015f205f015f8373ffffffffffffffffffffffffffffffffffffffff1673ffffffffffffffffffffffffffffffffffffffff1681526020019081526020015f205f9054906101000a900460ff16905092915050565b5f33905090565b5f60065f8381526020019081526020015f20600101549050919050565b5f81519050919050565b7f4e487b71000000000000000000000000000000000000000000000000000000005f52604160045260245ffd5b7f4e487b71000000000000000000000000000000000000000000000000000000005f52602260045260245ffd5b5f600282049050600182168061067f57607f821691505b6020821081036106925761069161063b565b5b50919050565b5f819050815f5260205f209050919050565b5f6020601f8301049050919050565b5f82821b905092915050565b5f600883026106f47fffffffffffffffffffffffffffffffffffffffffffffffffffffffffffffffff826106b9565b6106fe86836106b9565b95508019841693508086168417925050509392505050565b5f819050919050565b5f819050919050565b5f61074261073d61073884610716565b61071f565b610716565b9050919050565b5f819050919050565b61075b83610728565b61076f61076782610749565b8484546106c5565b825550505050565b5f5f905090565b610786610777565b610791818484610752565b505050565b5b818110156107b4576107a95f8261077e565b600181019050610797565b5050565b601f8211156107f9576107ca81610698565b6107d3846106aa565b810160208510156107e2578190505b6107f66107ee856106aa565b830182610796565b50505b505050565b5f82821c905092915050565b5f6108195f19846008026107fe565b1980831691505092915050565b5f610831838361080a565b9150826002028217905092915050565b61084a82610604565b67ffffffffffffffff8111156108635761086261060e565b5b61086d8254610668565b6108788282856107b8565b5f60209050601f8311600181146108a9575f8415610897578287015190505b6108a18582610826565b865550610908565b601f1984166108b786610698565b5f5b828110156108de578489015182556001820191506020850194506020810190506108b9565b868310156108fb57848901516108f7601f89168261080a565b8355505b6001600288020188555050505b505050505050565b6140ec8061091d5f395ff3fe608060405234801561000f575f5ffd5b506004361061021a575f3560e01c806370a0823111610123578063b88d4fde116100ab578063d547741f1161007a578063d547741f14610675578063d9eca82f14610691578063e58378bb146106ad578063e985e9c5146106cb578063ee2c29b0146106fb5761021a565b8063b88d4fde146105ed578063c6b54b3c14610609578063c87b56dd14610627578063d5391393146106575761021a565b806395d89b41116100f257806395d89b41146105495780639f20120a14610567578063a217fddf14610597578063a22cb465146105b5578063a5de2e2c146105d15761021a565b806370a082311461049d57806389d5beb3146104cd5780638e021994146104e957806391d14854146105195761021a565b80632f2ff15d116101a657806342842e0e1161017557806342842e0e146103e257806347e63380146103fe5780634a13983c1461041c5780636352211e1461044f5780636e1d616e1461047f5761021a565b80632f2ff15d1461035c578063344990a01461037857806334d6ff4c146103a857806336568abe146103c65761021a565b8063206b60f9116101ed578063206b60f9146102b857806323b872dd146102d6578063248a9ca3146102f2578063282c51f3146103225780632c1c4728146103405761021a565b806301ffc9a71461021e57806306fdde031461024e578063081812fc1461026c578063095ea7b31461029c575b5f5ffd5b61023860048036038101906102339190613005565b610731565b604051610245919061304a565b60405180910390f35b610256610742565b60405161026391906130d3565b60405180910390f35b61028660048036038101906102819190613126565b6107d1565b6040516102939190613190565b60405180910390f35b6102b660048036038101906102b191906131d3565b6107ec565b005b6102c0610802565b6040516102cd9190613229565b60405180910390f35b6102f060048036038101906102eb9190613242565b610826565b005b61030c600480360381019061030791906132bc565b610925565b6040516103199190613229565b60405180910390f35b61032a610942565b6040516103379190613229565b60405180910390f35b61035a60048036038101906103559190613413565b610966565b005b6103766004803603810190610371919061346d565b610cc1565b005b610392600480360381019061038d91906134ab565b610ce3565b60405161039f9190613514565b60405180910390f35b6103b0610f49565b6040516103bd9190613229565b60405180910390f35b6103e060048036038101906103db919061346d565b610f6d565b005b6103fc60048036038101906103f79190613242565b610fe8565b005b610406611007565b6040516104139190613229565b60405180910390f35b61043660048036038101906104319190613126565b61102b565b604051610446949392919061352d565b60405180910390f35b61046960048036038101906104649190613126565b61111b565b6040516104769190613190565b60405180910390f35b61048761112c565b6040516104949190613229565b60405180910390f35b6104b760048036038101906104b29190613577565b611150565b6040516104c49190613514565b60405180910390f35b6104e760048036038101906104e29190613413565b611206565b005b61050360048036038101906104fe9190613126565b6113dc565b6040516105109190613668565b60405180910390f35b610533600480360381019061052e919061346d565b611554565b604051610540919061304a565b60405180910390f35b6105516115b8565b60405161055e91906130d3565b60405180910390f35b610581600480360381019061057c9190613126565b611648565b60405161058e91906137a3565b60405180910390f35b61059f611941565b6040516105ac9190613229565b60405180910390f35b6105cf60048036038101906105ca91906137ed565b611947565b005b6105eb60048036038101906105e6919061346d565b61195d565b005b610607600480360381019061060291906138c9565b611a35565b005b610611611a5a565b60405161061e9190613229565b60405180910390f35b610641600480360381019061063c9190613126565b611a7e565b60405161064e91906130d3565b60405180910390f35b61065f611ae4565b60405161066c9190613229565b60405180910390f35b61068f600480360381019061068a919061346d565b611b08565b005b6106ab60048036038101906106a6919061346d565b611b2a565b005b6106b5611c02565b6040516106c29190613229565b60405180910390f35b6106e560048036038101906106e09190613949565b611c26565b6040516106f2919061304a565b60405180910390f35b61071560048036038101906107109190613126565b611cb4565b6040516107289796959493929190613996565b60405180910390f35b5f61073b82611dee565b9050919050565b60605f805461075090613a37565b80601f016020809104026020016040519081016040528092919081815260200182805461077c90613a37565b80156107c75780601f1061079e576101008083540402835291602001916107c7565b820191905f5260205f20905b8154815290600101906020018083116107aa57829003601f168201915b5050505050905090565b5f6107db82611e67565b506107e582611eed565b9050919050565b6107fe82826107f9611f26565b611f2d565b5050565b7f8502233096d909befbda0999bb8ea2f3a6be3c138b9fbf003752a4c8bce86f6c81565b5f73ffffffffffffffffffffffffffffffffffffffff168273ffffffffffffffffffffffffffffffffffffffff1603610896575f6040517f64a0ae9200000000000000000000000000000000000000000000000000000000815260040161088d9190613190565b60405180910390fd5b5f6108a983836108a4611f26565b611f3f565b90508373ffffffffffffffffffffffffffffffffffffffff168173ffffffffffffffffffffffffffffffffffffffff161461091f578382826040517f64283d7b00000000000000000000000000000000000000000000000000000000815260040161091693929190613a67565b60405180910390fd5b50505050565b5f60065f8381526020019081526020015f20600101549050919050565b7f3c11d16cbaffd01df69ce1c404f6340ee057498f5f00246190ea54220576a84881565b7f59a1c48e5837ad7a7f3dcedcbe129bf3249ec4fbf651fd4f5e2600ead39fe2f56109908161214a565b5f60085f8581526020019081526020015f2090505f60028111156109b7576109b6613688565b5b8160030160149054906101000a900460ff1660028111156109db576109da613688565b5b14610a1b576040517f08c379a0000000000000000000000000000000000000000000000000000000008152600401610a1290613ae6565b60405180910390fd5b60018160030160146101000a81548160ff02191690836002811115610a4357610a42613688565b5b021790555042816002018190555033816003015f6101000a81548173ffffffffffffffffffffffffffffffffffffffff021916908373ffffffffffffffffffffffffffffffffffffffff1602179055505f600a5f815480929190610aa690613b31565b919050559050610ad8825f015f9054906101000a900473ffffffffffffffffffffffffffffffffffffffff168261215e565b6001826005015f6101000a81548160ff0219169083151502179055506040518060800160405280835f015f9054906101000a900473ffffffffffffffffffffffffffffffffffffffff1673ffffffffffffffffffffffffffffffffffffffff16815260200183600201548152602001836003015f9054906101000a900473ffffffffffffffffffffffffffffffffffffffff1673ffffffffffffffffffffffffffffffffffffffff1681526020018581525060075f8381526020019081526020015f205f820151815f015f6101000a81548173ffffffffffffffffffffffffffffffffffffffff021916908373ffffffffffffffffffffffffffffffffffffffff160217905550602082015181600101556040820151816002015f6101000a81548173ffffffffffffffffffffffffffffffffffffffff021916908373ffffffffffffffffffffffffffffffffffffffff1602179055506060820151816003019081610c449190613d18565b50905050815f015f9054906101000a900473ffffffffffffffffffffffffffffffffffffffff1673ffffffffffffffffffffffffffffffffffffffff1681867fcac1a48dfcea6deaa4f2529d5327af2b577e8d061d54e8ac530d10a9422b4a5e87604051610cb291906130d3565b60405180910390a45050505050565b610cca82610925565b610cd38161214a565b610cdd838361217b565b50505050565b5f5f60095f815480929190610cf790613b31565b9190505590506040518060e001604052808473ffffffffffffffffffffffffffffffffffffffff1681526020013373ffffffffffffffffffffffffffffffffffffffff1681526020015f81526020015f73ffffffffffffffffffffffffffffffffffffffff1681526020015f6002811115610d7557610d74613688565b5b81526020018581526020015f151581525060085f8381526020019081526020015f205f820151815f015f6101000a81548173ffffffffffffffffffffffffffffffffffffffff021916908373ffffffffffffffffffffffffffffffffffffffff1602179055506020820151816001015f6101000a81548173ffffffffffffffffffffffffffffffffffffffff021916908373ffffffffffffffffffffffffffffffffffffffff160217905550604082015181600201556060820151816003015f6101000a81548173ffffffffffffffffffffffffffffffffffffffff021916908373ffffffffffffffffffffffffffffffffffffffff16021790555060808201518160030160146101000a81548160ff02191690836002811115610e9c57610e9b613688565b5b021790555060a0820151816004019081610eb69190613d18565b5060c0820151816005015f6101000a81548160ff0219169083151502179055509050508273ffffffffffffffffffffffffffffffffffffffff163373ffffffffffffffffffffffffffffffffffffffff16827fac4f4e47746bc4c8131381acadbdcdf61c9c7e944144e9c1abbe30d13cfa37a587604051610f3791906130d3565b60405180910390a48091505092915050565b7fcf75f067314df4d0527f2a9e12148d8bd7c8a3f7235b2171d24fa195d2c3ecb981565b610f75611f26565b73ffffffffffffffffffffffffffffffffffffffff168173ffffffffffffffffffffffffffffffffffffffff1614610fd9576040517f6697b23200000000000000000000000000000000000000000000000000000000815260040160405180910390fd5b610fe38282612265565b505050565b61100283838360405180602001604052805f815250611a35565b505050565b7f73e573f9566d61418a34d5de3ff49360f9c51fec37f7486551670290f6285dab81565b6007602052805f5260405f205f91509050805f015f9054906101000a900473ffffffffffffffffffffffffffffffffffffffff1690806001015490806002015f9054906101000a900473ffffffffffffffffffffffffffffffffffffffff169080600301805461109a90613a37565b80601f01602080910402602001604051908101604052809291908181526020018280546110c690613a37565b80156111115780601f106110e857610100808354040283529160200191611111565b820191905f5260205f20905b8154815290600101906020018083116110f457829003601f168201915b5050505050905084565b5f61112582611e67565b9050919050565b7f59a1c48e5837ad7a7f3dcedcbe129bf3249ec4fbf651fd4f5e2600ead39fe2f581565b5f5f73ffffffffffffffffffffffffffffffffffffffff168273ffffffffffffffffffffffffffffffffffffffff16036111c1575f6040517f89c62b640000000000000000000000000000000000000000000000000000000081526004016111b89190613190565b60405180910390fd5b60035f8373ffffffffffffffffffffffffffffffffffffffff1673ffffffffffffffffffffffffffffffffffffffff1681526020019081526020015f20549050919050565b7f59a1c48e5837ad7a7f3dcedcbe129bf3249ec4fbf651fd4f5e2600ead39fe2f56112308161214a565b5f60085f8581526020019081526020015f2090505f600281111561125757611256613688565b5b8160030160149054906101000a900460ff16600281111561127b5761127a613688565b5b146112bb576040517f08c379a00000000000000000000000000000000000000000000000000000000081526004016112b290613ae6565b60405180910390fd5b60028160030160146101000a81548160ff021916908360028111156112e3576112e2613688565b5b021790555042816002018190555033816003015f6101000a81548173ffffffffffffffffffffffffffffffffffffffff021916908373ffffffffffffffffffffffffffffffffffffffff1602179055505f816005015f6101000a81548160ff021916908315150217905550805f015f9054906101000a900473ffffffffffffffffffffffffffffffffffffffff1673ffffffffffffffffffffffffffffffffffffffff163373ffffffffffffffffffffffffffffffffffffffff16857f59b0330697e473ca29ff39e5658bfa1fb9f490bf73f2ae81a5d4fb5ccc06996f866040516113ce91906130d3565b60405180910390a450505050565b6113e4612ec1565b6113ed82611e67565b5060075f8381526020019081526020015f206040518060800160405290815f82015f9054906101000a900473ffffffffffffffffffffffffffffffffffffffff1673ffffffffffffffffffffffffffffffffffffffff1673ffffffffffffffffffffffffffffffffffffffff16815260200160018201548152602001600282015f9054906101000a900473ffffffffffffffffffffffffffffffffffffffff1673ffffffffffffffffffffffffffffffffffffffff1673ffffffffffffffffffffffffffffffffffffffff1681526020016003820180546114cd90613a37565b80601f01602080910402602001604051908101604052809291908181526020018280546114f990613a37565b80156115445780601f1061151b57610100808354040283529160200191611544565b820191905f5260205f20905b81548152906001019060200180831161152757829003601f168201915b5050505050815250509050919050565b5f60065f8481526020019081526020015f205f015f8373ffffffffffffffffffffffffffffffffffffffff1673ffffffffffffffffffffffffffffffffffffffff1681526020019081526020015f205f9054906101000a900460ff16905092915050565b6060600180546115c790613a37565b80601f01602080910402602001604051908101604052809291908181526020018280546115f390613a37565b801561163e5780601f106116155761010080835404028352916020019161163e565b820191905f5260205f20905b81548152906001019060200180831161162157829003601f168201915b5050505050905090565b611650612f12565b5f60085f8481526020019081526020015f206040518060e00160405290815f82015f9054906101000a900473ffffffffffffffffffffffffffffffffffffffff1673ffffffffffffffffffffffffffffffffffffffff1673ffffffffffffffffffffffffffffffffffffffff168152602001600182015f9054906101000a900473ffffffffffffffffffffffffffffffffffffffff1673ffffffffffffffffffffffffffffffffffffffff1673ffffffffffffffffffffffffffffffffffffffff16815260200160028201548152602001600382015f9054906101000a900473ffffffffffffffffffffffffffffffffffffffff1673ffffffffffffffffffffffffffffffffffffffff1673ffffffffffffffffffffffffffffffffffffffff1681526020016003820160149054906101000a900460ff16600281111561179a57611799613688565b5b60028111156117ac576117ab613688565b5b81526020016004820180546117c090613a37565b80601f01602080910402602001604051908101604052809291908181526020018280546117ec90613a37565b80156118375780601f1061180e57610100808354040283529160200191611837565b820191905f5260205f20905b81548152906001019060200180831161181a57829003601f168201915b50505050508152602001600582015f9054906101000a900460ff16151515158152505090506118867f59a1c48e5837ad7a7f3dcedcbe129bf3249ec4fbf651fd4f5e2600ead39fe2f533611554565b806118c05750806020015173ffffffffffffffffffffffffffffffffffffffff163373ffffffffffffffffffffffffffffffffffffffff16145b806118f95750805f015173ffffffffffffffffffffffffffffffffffffffff163373ffffffffffffffffffffffffffffffffffffffff16145b611938576040517f08c379a000000000000000000000000000000000000000000000000000000000815260040161192f90613e57565b60405180910390fd5b80915050919050565b5f5f1b81565b611959611952611f26565b838361234f565b5050565b61196682610925565b61196f8161214a565b7fcf75f067314df4d0527f2a9e12148d8bd7c8a3f7235b2171d24fa195d2c3ecb98314806119bc57507f59a1c48e5837ad7a7f3dcedcbe129bf3249ec4fbf651fd4f5e2600ead39fe2f583145b806119e657507fb19546dff01e856fb3f010c267a7b1c60363cf8a4664e21cc89c26224620214e83145b611a25576040517f08c379a0000000000000000000000000000000000000000000000000000000008152600401611a1c90613ee5565b60405180910390fd5b611a2f838361217b565b50505050565b611a40848484610826565b611a54611a4b611f26565b858585856124b8565b50505050565b7f0f6ee822d2ee125e4ce6edbae6c10a76fa9fd4617e0399ab687226fa3344210081565b6060611a8982611e67565b505f611a93612664565b90505f815111611ab15760405180602001604052805f815250611adc565b80611abb8461267a565b604051602001611acc929190613f3d565b6040516020818303038152906040525b915050919050565b7f9f2df0fed2c77648de5860a4cc508cd0818c85b8b8a1ab4ceeef8d981c8956a681565b611b1182610925565b611b1a8161214a565b611b248383612265565b50505050565b611b3382610925565b611b3c8161214a565b7fcf75f067314df4d0527f2a9e12148d8bd7c8a3f7235b2171d24fa195d2c3ecb9831480611b8957507f59a1c48e5837ad7a7f3dcedcbe129bf3249ec4fbf651fd4f5e2600ead39fe2f583145b80611bb357507fb19546dff01e856fb3f010c267a7b1c60363cf8a4664e21cc89c26224620214e83145b611bf2576040517f08c379a0000000000000000000000000000000000000000000000000000000008152600401611be990613ee5565b60405180910390fd5b611bfc8383612265565b50505050565b7fb19546dff01e856fb3f010c267a7b1c60363cf8a4664e21cc89c26224620214e81565b5f60055f8473ffffffffffffffffffffffffffffffffffffffff1673ffffffffffffffffffffffffffffffffffffffff1681526020019081526020015f205f8373ffffffffffffffffffffffffffffffffffffffff1673ffffffffffffffffffffffffffffffffffffffff1681526020019081526020015f205f9054906101000a900460ff16905092915050565b6008602052805f5260405f205f91509050805f015f9054906101000a900473ffffffffffffffffffffffffffffffffffffffff1690806001015f9054906101000a900473ffffffffffffffffffffffffffffffffffffffff1690806002015490806003015f9054906101000a900473ffffffffffffffffffffffffffffffffffffffff16908060030160149054906101000a900460ff1690806004018054611d5b90613a37565b80601f0160208091040260200160405190810160405280929190818152602001828054611d8790613a37565b8015611dd25780601f10611da957610100808354040283529160200191611dd2565b820191905f5260205f20905b815481529060010190602001808311611db557829003601f168201915b505050505090806005015f9054906101000a900460ff16905087565b5f7f7965db0b000000000000000000000000000000000000000000000000000000007bffffffffffffffffffffffffffffffffffffffffffffffffffffffff1916827bffffffffffffffffffffffffffffffffffffffffffffffffffffffff19161480611e605750611e5f82612744565b5b9050919050565b5f5f611e7283612825565b90505f73ffffffffffffffffffffffffffffffffffffffff168173ffffffffffffffffffffffffffffffffffffffff1603611ee457826040517f7e273289000000000000000000000000000000000000000000000000000000008152600401611edb9190613514565b60405180910390fd5b80915050919050565b5f60045f8381526020019081526020015f205f9054906101000a900473ffffffffffffffffffffffffffffffffffffffff169050919050565b5f33905090565b611f3a838383600161285e565b505050565b5f5f611f4a84612825565b90505f73ffffffffffffffffffffffffffffffffffffffff168373ffffffffffffffffffffffffffffffffffffffff1614611f8b57611f8a818486612a1d565b5b5f73ffffffffffffffffffffffffffffffffffffffff168173ffffffffffffffffffffffffffffffffffffffff161461201657611fca5f855f5f61285e565b600160035f8373ffffffffffffffffffffffffffffffffffffffff1673ffffffffffffffffffffffffffffffffffffffff1681526020019081526020015f205f82825403925050819055505b5f73ffffffffffffffffffffffffffffffffffffffff168573ffffffffffffffffffffffffffffffffffffffff161461209557600160035f8773ffffffffffffffffffffffffffffffffffffffff1673ffffffffffffffffffffffffffffffffffffffff1681526020019081526020015f205f82825401925050819055505b8460025f8681526020019081526020015f205f6101000a81548173ffffffffffffffffffffffffffffffffffffffff021916908373ffffffffffffffffffffffffffffffffffffffff160217905550838573ffffffffffffffffffffffffffffffffffffffff168273ffffffffffffffffffffffffffffffffffffffff167fddf252ad1be2c89b69c2b068fc378daa952ba7f163c4a11628f55a4df523b3ef60405160405180910390a4809150509392505050565b61215b81612156611f26565b612ae0565b50565b612177828260405180602001604052805f815250612b31565b5050565b5f6121868383611554565b61225b57600160065f8581526020019081526020015f205f015f8473ffffffffffffffffffffffffffffffffffffffff1673ffffffffffffffffffffffffffffffffffffffff1681526020019081526020015f205f6101000a81548160ff0219169083151502179055506121f8611f26565b73ffffffffffffffffffffffffffffffffffffffff168273ffffffffffffffffffffffffffffffffffffffff16847f2f8788117e7eff1d82e926ec794901d17c78024a50270940304540a733656f0d60405160405180910390a46001905061225f565b5f90505b92915050565b5f6122708383611554565b15612345575f60065f8581526020019081526020015f205f015f8473ffffffffffffffffffffffffffffffffffffffff1673ffffffffffffffffffffffffffffffffffffffff1681526020019081526020015f205f6101000a81548160ff0219169083151502179055506122e2611f26565b73ffffffffffffffffffffffffffffffffffffffff168273ffffffffffffffffffffffffffffffffffffffff16847ff6391f5c32d9c69d2a47ea670b442974b53935d1edc7fd64eb21e047a839171b60405160405180910390a460019050612349565b5f90505b92915050565b5f73ffffffffffffffffffffffffffffffffffffffff168273ffffffffffffffffffffffffffffffffffffffff16036123bf57816040517f5b08ba180000000000000000000000000000000000000000000000000000000081526004016123b69190613190565b60405180910390fd5b8060055f8573ffffffffffffffffffffffffffffffffffffffff1673ffffffffffffffffffffffffffffffffffffffff1681526020019081526020015f205f8473ffffffffffffffffffffffffffffffffffffffff1673ffffffffffffffffffffffffffffffffffffffff1681526020019081526020015f205f6101000a81548160ff0219169083151502179055508173ffffffffffffffffffffffffffffffffffffffff168373ffffffffffffffffffffffffffffffffffffffff167f17307eab39ab6107e8899845ad3d59bd9653f200f220920489ca2b5937696c31836040516124ab919061304a565b60405180910390a3505050565b5f8373ffffffffffffffffffffffffffffffffffffffff163b111561265d578273ffffffffffffffffffffffffffffffffffffffff1663150b7a02868685856040518563ffffffff1660e01b81526004016125169493929190613fb2565b6020604051808303815f875af192505050801561255157506040513d601f19601f8201168201806040525081019061254e9190614010565b60015b6125d2573d805f811461257f576040519150601f19603f3d011682016040523d82523d5f602084013e612584565b606091505b505f8151036125ca57836040517f64a0ae920000000000000000000000000000000000000000000000000000000081526004016125c19190613190565b60405180910390fd5b805160208201fd5b63150b7a0260e01b7bffffffffffffffffffffffffffffffffffffffffffffffffffffffff1916817bffffffffffffffffffffffffffffffffffffffffffffffffffffffff19161461265b57836040517f64a0ae920000000000000000000000000000000000000000000000000000000081526004016126529190613190565b60405180910390fd5b505b5050505050565b606060405180602001604052805f815250905090565b60605f600161268884612b54565b0190505f8167ffffffffffffffff8111156126a6576126a56132ef565b5b6040519080825280601f01601f1916602001820160405280156126d85781602001600182028036833780820191505090505b5090505f82602083010190505b600115612739578080600190039150507f3031323334353637383961626364656600000000000000000000000000000000600a86061a8153600a858161272e5761272d61403b565b5b0494505f85036126e5575b819350505050919050565b5f7f80ac58cd000000000000000000000000000000000000000000000000000000007bffffffffffffffffffffffffffffffffffffffffffffffffffffffff1916827bffffffffffffffffffffffffffffffffffffffffffffffffffffffff1916148061280e57507f5b5e139f000000000000000000000000000000000000000000000000000000007bffffffffffffffffffffffffffffffffffffffffffffffffffffffff1916827bffffffffffffffffffffffffffffffffffffffffffffffffffffffff1916145b8061281e575061281d82612ca5565b5b9050919050565b5f60025f8381526020019081526020015f205f9054906101000a900473ffffffffffffffffffffffffffffffffffffffff169050919050565b808061289657505f73ffffffffffffffffffffffffffffffffffffffff168273ffffffffffffffffffffffffffffffffffffffff1614155b156129c8575f6128a584611e67565b90505f73ffffffffffffffffffffffffffffffffffffffff168373ffffffffffffffffffffffffffffffffffffffff161415801561290f57508273ffffffffffffffffffffffffffffffffffffffff168173ffffffffffffffffffffffffffffffffffffffff1614155b801561292257506129208184611c26565b155b1561296457826040517fa9fbf51f00000000000000000000000000000000000000000000000000000000815260040161295b9190613190565b60405180910390fd5b81156129c657838573ffffffffffffffffffffffffffffffffffffffff168273ffffffffffffffffffffffffffffffffffffffff167f8c5be1e5ebec7d5bd14f71427d1e84f3dd0314c0f7b2291e5b200ac8c7c3b92560405160405180910390a45b505b8360045f8581526020019081526020015f205f6101000a81548173ffffffffffffffffffffffffffffffffffffffff021916908373ffffffffffffffffffffffffffffffffffffffff16021790555050505050565b612a28838383612d0e565b612adb575f73ffffffffffffffffffffffffffffffffffffffff168373ffffffffffffffffffffffffffffffffffffffff1603612a9c57806040517f7e273289000000000000000000000000000000000000000000000000000000008152600401612a939190613514565b60405180910390fd5b81816040517f177e802f000000000000000000000000000000000000000000000000000000008152600401612ad2929190614068565b60405180910390fd5b505050565b612aea8282611554565b612b2d5780826040517fe2517d3f000000000000000000000000000000000000000000000000000000008152600401612b2492919061408f565b60405180910390fd5b5050565b612b3b8383612dce565b612b4f612b46611f26565b5f8585856124b8565b505050565b5f5f5f90507a184f03e93ff9f4daa797ed6e38ed64bf6a1f0100000000000000008310612bb0577a184f03e93ff9f4daa797ed6e38ed64bf6a1f0100000000000000008381612ba657612ba561403b565b5b0492506040810190505b6d04ee2d6d415b85acef81000000008310612bed576d04ee2d6d415b85acef81000000008381612be357612be261403b565b5b0492506020810190505b662386f26fc100008310612c1c57662386f26fc100008381612c1257612c1161403b565b5b0492506010810190505b6305f5e1008310612c45576305f5e1008381612c3b57612c3a61403b565b5b0492506008810190505b6127108310612c6a576127108381612c6057612c5f61403b565b5b0492506004810190505b60648310612c8d5760648381612c8357612c8261403b565b5b0492506002810190505b600a8310612c9c576001810190505b80915050919050565b5f7f01ffc9a7000000000000000000000000000000000000000000000000000000007bffffffffffffffffffffffffffffffffffffffffffffffffffffffff1916827bffffffffffffffffffffffffffffffffffffffffffffffffffffffff1916149050919050565b5f5f73ffffffffffffffffffffffffffffffffffffffff168373ffffffffffffffffffffffffffffffffffffffff1614158015612dc557508273ffffffffffffffffffffffffffffffffffffffff168473ffffffffffffffffffffffffffffffffffffffff161480612d865750612d858484611c26565b5b80612dc457508273ffffffffffffffffffffffffffffffffffffffff16612dac83611eed565b73ffffffffffffffffffffffffffffffffffffffff16145b5b90509392505050565b5f73ffffffffffffffffffffffffffffffffffffffff168273ffffffffffffffffffffffffffffffffffffffff1603612e3e575f6040517f64a0ae92000000000000000000000000000000000000000000000000000000008152600401612e359190613190565b60405180910390fd5b5f612e4a83835f611f3f565b90505f73ffffffffffffffffffffffffffffffffffffffff168173ffffffffffffffffffffffffffffffffffffffff1614612ebc575f6040517f73c6ac6e000000000000000000000000000000000000000000000000000000008152600401612eb39190613190565b60405180910390fd5b505050565b60405180608001604052805f73ffffffffffffffffffffffffffffffffffffffff1681526020015f81526020015f73ffffffffffffffffffffffffffffffffffffffff168152602001606081525090565b6040518060e001604052805f73ffffffffffffffffffffffffffffffffffffffff1681526020015f73ffffffffffffffffffffffffffffffffffffffff1681526020015f81526020015f73ffffffffffffffffffffffffffffffffffffffff1681526020015f6002811115612f8a57612f89613688565b5b8152602001606081526020015f151581525090565b5f604051905090565b5f5ffd5b5f5ffd5b5f7fffffffff0000000000000000000000000000000000000000000000000000000082169050919050565b612fe481612fb0565b8114612fee575f5ffd5b50565b5f81359050612fff81612fdb565b92915050565b5f6020828403121561301a57613019612fa8565b5b5f61302784828501612ff1565b91505092915050565b5f8115159050919050565b61304481613030565b82525050565b5f60208201905061305d5f83018461303b565b92915050565b5f81519050919050565b5f82825260208201905092915050565b8281835e5f83830152505050565b5f601f19601f8301169050919050565b5f6130a582613063565b6130af818561306d565b93506130bf81856020860161307d565b6130c88161308b565b840191505092915050565b5f6020820190508181035f8301526130eb818461309b565b905092915050565b5f819050919050565b613105816130f3565b811461310f575f5ffd5b50565b5f81359050613120816130fc565b92915050565b5f6020828403121561313b5761313a612fa8565b5b5f61314884828501613112565b91505092915050565b5f73ffffffffffffffffffffffffffffffffffffffff82169050919050565b5f61317a82613151565b9050919050565b61318a81613170565b82525050565b5f6020820190506131a35f830184613181565b92915050565b6131b281613170565b81146131bc575f5ffd5b50565b5f813590506131cd816131a9565b92915050565b5f5f604083850312156131e9576131e8612fa8565b5b5f6131f6858286016131bf565b925050602061320785828601613112565b9150509250929050565b5f819050919050565b61322381613211565b82525050565b5f60208201905061323c5f83018461321a565b92915050565b5f5f5f6060848603121561325957613258612fa8565b5b5f613266868287016131bf565b9350506020613277868287016131bf565b925050604061328886828701613112565b9150509250925092565b61329b81613211565b81146132a5575f5ffd5b50565b5f813590506132b681613292565b92915050565b5f602082840312156132d1576132d0612fa8565b5b5f6132de848285016132a8565b91505092915050565b5f5ffd5b5f5ffd5b7f4e487b71000000000000000000000000000000000000000000000000000000005f52604160045260245ffd5b6133258261308b565b810181811067ffffffffffffffff82111715613344576133436132ef565b5b80604052505050565b5f613356612f9f565b9050613362828261331c565b919050565b5f67ffffffffffffffff821115613381576133806132ef565b5b61338a8261308b565b9050602081019050919050565b828183375f83830152505050565b5f6133b76133b284613367565b61334d565b9050828152602081018484840111156133d3576133d26132eb565b5b6133de848285613397565b509392505050565b5f82601f8301126133fa576133f96132e7565b5b813561340a8482602086016133a5565b91505092915050565b5f5f6040838503121561342957613428612fa8565b5b5f61343685828601613112565b925050602083013567ffffffffffffffff81111561345757613456612fac565b5b613463858286016133e6565b9150509250929050565b5f5f6040838503121561348357613482612fa8565b5b5f613490858286016132a8565b92505060206134a1858286016131bf565b9150509250929050565b5f5f604083850312156134c1576134c0612fa8565b5b5f83013567ffffffffffffffff8111156134de576134dd612fac565b5b6134ea858286016133e6565b92505060206134fb858286016131bf565b9150509250929050565b61350e816130f3565b82525050565b5f6020820190506135275f830184613505565b92915050565b5f6080820190506135405f830187613181565b61354d6020830186613505565b61355a6040830185613181565b818103606083015261356c818461309b565b905095945050505050565b5f6020828403121561358c5761358b612fa8565b5b5f613599848285016131bf565b91505092915050565b6135ab81613170565b82525050565b6135ba816130f3565b82525050565b5f82825260208201905092915050565b5f6135da82613063565b6135e481856135c0565b93506135f481856020860161307d565b6135fd8161308b565b840191505092915050565b5f608083015f83015161361d5f8601826135a2565b50602083015161363060208601826135b1565b50604083015161364360408601826135a2565b506060830151848203606086015261365b82826135d0565b9150508091505092915050565b5f6020820190508181035f8301526136808184613608565b905092915050565b7f4e487b71000000000000000000000000000000000000000000000000000000005f52602160045260245ffd5b600381106136c6576136c5613688565b5b50565b5f8190506136d6826136b5565b919050565b5f6136e5826136c9565b9050919050565b6136f5816136db565b82525050565b61370481613030565b82525050565b5f60e083015f83015161371f5f8601826135a2565b50602083015161373260208601826135a2565b50604083015161374560408601826135b1565b50606083015161375860608601826135a2565b50608083015161376b60808601826136ec565b5060a083015184820360a086015261378382826135d0565b91505060c083015161379860c08601826136fb565b508091505092915050565b5f6020820190508181035f8301526137bb818461370a565b905092915050565b6137cc81613030565b81146137d6575f5ffd5b50565b5f813590506137e7816137c3565b92915050565b5f5f6040838503121561380357613802612fa8565b5b5f613810858286016131bf565b9250506020613821858286016137d9565b9150509250929050565b5f67ffffffffffffffff821115613845576138446132ef565b5b61384e8261308b565b9050602081019050919050565b5f61386d6138688461382b565b61334d565b905082815260208101848484011115613889576138886132eb565b5b613894848285613397565b509392505050565b5f82601f8301126138b0576138af6132e7565b5b81356138c084826020860161385b565b91505092915050565b5f5f5f5f608085870312156138e1576138e0612fa8565b5b5f6138ee878288016131bf565b94505060206138ff878288016131bf565b935050604061391087828801613112565b925050606085013567ffffffffffffffff81111561393157613930612fac565b5b61393d8782880161389c565b91505092959194509250565b5f5f6040838503121561395f5761395e612fa8565b5b5f61396c858286016131bf565b925050602061397d858286016131bf565b9150509250929050565b613990816136db565b82525050565b5f60e0820190506139a95f83018a613181565b6139b66020830189613181565b6139c36040830188613505565b6139d06060830187613181565b6139dd6080830186613987565b81810360a08301526139ef818561309b565b90506139fe60c083018461303b565b98975050505050505050565b7f4e487b71000000000000000000000000000000000000000000000000000000005f52602260045260245ffd5b5f6002820490506001821680613a4e57607f821691505b602082108103613a6157613a60613a0a565b5b50919050565b5f606082019050613a7a5f830186613181565b613a876020830185613505565b613a946040830184613181565b949350505050565b7f416c72656164792070726f6365737365640000000000000000000000000000005f82015250565b5f613ad060118361306d565b9150613adb82613a9c565b602082019050919050565b5f6020820190508181035f830152613afd81613ac4565b9050919050565b7f4e487b71000000000000000000000000000000000000000000000000000000005f52601160045260245ffd5b5f613b3b826130f3565b91507fffffffffffffffffffffffffffffffffffffffffffffffffffffffffffffffff8203613b6d57613b6c613b04565b5b600182019050919050565b5f819050815f5260205f209050919050565b5f6020601f8301049050919050565b5f82821b905092915050565b5f60088302613bd47fffffffffffffffffffffffffffffffffffffffffffffffffffffffffffffffff82613b99565b613bde8683613b99565b95508019841693508086168417925050509392505050565b5f819050919050565b5f613c19613c14613c0f846130f3565b613bf6565b6130f3565b9050919050565b5f819050919050565b613c3283613bff565b613c46613c3e82613c20565b848454613ba5565b825550505050565b5f5f905090565b613c5d613c4e565b613c68818484613c29565b505050565b5b81811015613c8b57613c805f82613c55565b600181019050613c6e565b5050565b601f821115613cd057613ca181613b78565b613caa84613b8a565b81016020851015613cb9578190505b613ccd613cc585613b8a565b830182613c6d565b50505b505050565b5f82821c905092915050565b5f613cf05f1984600802613cd5565b1980831691505092915050565b5f613d088383613ce1565b9150826002028217905092915050565b613d2182613063565b67ffffffffffffffff811115613d3a57613d396132ef565b5b613d448254613a37565b613d4f828285613c8f565b5f60209050601f831160018114613d80575f8415613d6e578287015190505b613d788582613cfd565b865550613ddf565b601f198416613d8e86613b78565b5f5b82811015613db557848901518255600182019150602085019450602081019050613d90565b86831015613dd25784890151613dce601f891682613ce1565b8355505b6001600288020188555050505b505050505050565b7f4e6f7420617574686f72697a656420746f2076696577207468697320726571755f8201527f6573740000000000000000000000000000000000000000000000000000000000602082015250565b5f613e4160238361306d565b9150613e4c82613de7565b604082019050919050565b5f6020820190508181035f830152613e6e81613e35565b9050919050565b7f526f6c65206e6f74206d616e61676561626c6520627920524f4c455f4d414e415f8201527f4745520000000000000000000000000000000000000000000000000000000000602082015250565b5f613ecf60238361306d565b9150613eda82613e75565b604082019050919050565b5f6020820190508181035f830152613efc81613ec3565b9050919050565b5f81905092915050565b5f613f1782613063565b613f218185613f03565b9350613f3181856020860161307d565b80840191505092915050565b5f613f488285613f0d565b9150613f548284613f0d565b91508190509392505050565b5f81519050919050565b5f82825260208201905092915050565b5f613f8482613f60565b613f8e8185613f6a565b9350613f9e81856020860161307d565b613fa78161308b565b840191505092915050565b5f608082019050613fc55f830187613181565b613fd26020830186613181565b613fdf6040830185613505565b8181036060830152613ff18184613f7a565b905095945050505050565b5f8151905061400a81612fdb565b92915050565b5f6020828403121561402557614024612fa8565b5b5f61403284828501613ffc565b91505092915050565b7f4e487b71000000000000000000000000000000000000000000000000000000005f52601260045260245ffd5b5f60408201905061407b5f830185613181565b6140886020830184613505565b9392505050565b5f6040820190506140a25f830185613181565b6140af602083018461321a565b939250505056fea2646970667358221220ba5b3bc614bd3a0ac9a95bbd79e913b2fd122e8500c81c1032505e017cebfe2c64736f6c634300081c0033",
  "linkReferences": {},
  "deployedLinkReferences": {},
  "immutableReferences": {},
  "inputSourceName": "project/contracts/VehicleRegistry.sol",
  "buildInfoId": "solc-0_8_28-16052e3f65186b48a3d80ab8db7dea5cbe31e60f"
}